{
  "_format": "hh-sol-artifact-1",
  "contractName": "VestingManager",
  "sourceName": "contracts/VestingManager.sol",
  "abi": [
    {
      "inputs": [],
      "stateMutability": "nonpayable",
      "type": "constructor"
    },
    {
      "inputs": [
        {
          "internalType": "address",
          "name": "user",
          "type": "address"
        }
      ],
      "name": "userVestingIds",
      "outputs": [
        {
          "internalType": "address[]",
          "name": "",
          "type": "address[]"
        }
      ],
      "stateMutability": "view",
      "type": "function"
    },
    {
      "inputs": [
        {
          "internalType": "address[]",
          "name": "beneficiaryAddresses",
          "type": "address[]"
        }
      ],
      "name": "vest",
      "outputs": [
        {
          "internalType": "address",
          "name": "",
          "type": "address"
        }
      ],
      "stateMutability": "nonpayable",
      "type": "function"
    },
    {
      "inputs": [],
      "name": "vestingIds",
      "outputs": [
        {
          "internalType": "address[]",
          "name": "",
          "type": "address[]"
        }
      ],
      "stateMutability": "view",
      "type": "function"
    }
  ],
  "bytecode": "0x60a060405234801561001057600080fd5b503373ffffffffffffffffffffffffffffffffffffffff1660808173ffffffffffffffffffffffffffffffffffffffff16815250506080516139e861005d600039600050506139e86000f3fe60806040523480156200001157600080fd5b5060043610620000465760003560e01c80633a8afbc1146200004b5780635b7694a0146200006d578063aa69e04f14620000a3575b600080fd5b62000055620000d9565b604051620000649190620004d3565b60405180910390f35b6200008b60048036038101906200008591906200053c565b62000169565b6040516200009a9190620004d3565b60405180910390f35b620000c16004803603810190620000bb9190620006e3565b62000238565b604051620000d0919062000745565b60405180910390f35b606060008054806020026020016040519081016040528092919081815260200182805480156200015f57602002820191906000526020600020905b8160009054906101000a900473ffffffffffffffffffffffffffffffffffffffff1673ffffffffffffffffffffffffffffffffffffffff168152602001906001019080831162000114575b5050505050905090565b6060600160008373ffffffffffffffffffffffffffffffffffffffff1673ffffffffffffffffffffffffffffffffffffffff1681526020019081526020016000208054806020026020016040519081016040528092919081815260200182805480156200022c57602002820191906000526020600020905b8160009054906101000a900473ffffffffffffffffffffffffffffffffffffffff1673ffffffffffffffffffffffffffffffffffffffff1681526020019060010190808311620001e1575b50505050509050919050565b600080826040516200024a90620003c3565b620002569190620004d3565b604051809103906000f08015801562000273573d6000803e3d6000fd5b5090506000819080600181540180825580915050600190039060005260206000200160009091909190916101000a81548173ffffffffffffffffffffffffffffffffffffffff021916908373ffffffffffffffffffffffffffffffffffffffff16021790555060005b8351811015620003b957600160008583815181106200030057620002ff62000762565b5b602002602001015173ffffffffffffffffffffffffffffffffffffffff1673ffffffffffffffffffffffffffffffffffffffff168152602001908152602001600020829080600181540180825580915050600190039060005260206000200160009091909190916101000a81548173ffffffffffffffffffffffffffffffffffffffff021916908373ffffffffffffffffffffffffffffffffffffffff1602179055508080620003b090620007ca565b915050620002dc565b5080915050919050565b61319b806200081883390190565b600081519050919050565b600082825260208201905092915050565b6000819050602082019050919050565b600073ffffffffffffffffffffffffffffffffffffffff82169050919050565b60006200042a82620003fd565b9050919050565b6200043c816200041d565b82525050565b600062000450838362000431565b60208301905092915050565b6000602082019050919050565b60006200047682620003d1565b620004828185620003dc565b93506200048f83620003ed565b8060005b83811015620004c6578151620004aa888262000442565b9750620004b7836200045c565b92505060018101905062000493565b5085935050505092915050565b60006020820190508181036000830152620004ef818462000469565b905092915050565b6000604051905090565b600080fd5b600080fd5b62000516816200041d565b81146200052257600080fd5b50565b60008135905062000536816200050b565b92915050565b60006020828403121562000555576200055462000501565b5b6000620005658482850162000525565b91505092915050565b600080fd5b6000601f19601f8301169050919050565b7f4e487b7100000000000000000000000000000000000000000000000000000000600052604160045260246000fd5b620005be8262000573565b810181811067ffffffffffffffff82111715620005e057620005df62000584565b5b80604052505050565b6000620005f5620004f7565b9050620006038282620005b3565b919050565b600067ffffffffffffffff82111562000626576200062562000584565b5b602082029050602081019050919050565b600080fd5b6000620006536200064d8462000608565b620005e9565b9050808382526020820190506020840283018581111562000679576200067862000637565b5b835b81811015620006a6578062000691888262000525565b8452602084019350506020810190506200067b565b5050509392505050565b600082601f830112620006c857620006c76200056e565b5b8135620006da8482602086016200063c565b91505092915050565b600060208284031215620006fc57620006fb62000501565b5b600082013567ffffffffffffffff8111156200071d576200071c62000506565b5b6200072b84828501620006b0565b91505092915050565b6200073f816200041d565b82525050565b60006020820190506200075c600083018462000734565b92915050565b7f4e487b7100000000000000000000000000000000000000000000000000000000600052603260045260246000fd5b7f4e487b7100000000000000000000000000000000000000000000000000000000600052601160045260246000fd5b6000819050919050565b6000620007d782620007c0565b91507fffffffffffffffffffffffffffffffffffffffffffffffffffffffffffffffff82036200080c576200080b62000791565b5b60018201905091905056fe60e06040523480156200001157600080fd5b506040516200319b3803806200319b8339818101604052810190620000379190620005f0565b60008151036200007e576040517f08c379a00000000000000000000000000000000000000000000000000000000081526004016200007590620006c8565b60405180910390fd5b600c81511115620000c6576040517f08c379a0000000000000000000000000000000000000000000000000000000008152600401620000bd9062000760565b60405180910390fd5b60005b8151811015620002a057600073ffffffffffffffffffffffffffffffffffffffff1682828151811062000101576200010062000782565b5b602002602001015173ffffffffffffffffffffffffffffffffffffffff160362000162576040517f08c379a0000000000000000000000000000000000000000000000000000000008152600401620001599062000827565b60405180910390fd5b600015156003600084848151811062000180576200017f62000782565b5b602002602001015173ffffffffffffffffffffffffffffffffffffffff1673ffffffffffffffffffffffffffffffffffffffff16815260200190815260200160002060009054906101000a900460ff1615151462000215576040517f08c379a00000000000000000000000000000000000000000000000000000000081526004016200020c90620008bf565b60405180910390fd5b60016003600084848151811062000231576200023062000782565b5b602002602001015173ffffffffffffffffffffffffffffffffffffffff1673ffffffffffffffffffffffffffffffffffffffff16815260200190815260200160002060006101000a81548160ff021916908315150217905550808062000297906200091a565b915050620000c9565b50604051620002af9062000346565b604051809103906000f080158015620002cc573d6000803e3d6000fd5b5073ffffffffffffffffffffffffffffffffffffffff1660808173ffffffffffffffffffffffffffffffffffffffff16815250506a52b7d2dcc80cd2e400000060018190555080600590805190602001906200032a92919062000354565b504260a081815250506301da9c0060c081815250505062000967565b61190d806200188e83390190565b828054828255906000526020600020908101928215620003d0579160200282015b82811115620003cf5782518260006101000a81548173ffffffffffffffffffffffffffffffffffffffff021916908373ffffffffffffffffffffffffffffffffffffffff1602179055509160200191906001019062000375565b5b509050620003df9190620003e3565b5090565b5b80821115620003fe576000816000905550600101620003e4565b5090565b6000604051905090565b600080fd5b600080fd5b600080fd5b6000601f19601f8301169050919050565b7f4e487b7100000000000000000000000000000000000000000000000000000000600052604160045260246000fd5b62000466826200041b565b810181811067ffffffffffffffff821117156200048857620004876200042c565b5b80604052505050565b60006200049d62000402565b9050620004ab82826200045b565b919050565b600067ffffffffffffffff821115620004ce57620004cd6200042c565b5b602082029050602081019050919050565b600080fd5b600073ffffffffffffffffffffffffffffffffffffffff82169050919050565b60006200051182620004e4565b9050919050565b620005238162000504565b81146200052f57600080fd5b50565b600081519050620005438162000518565b92915050565b6000620005606200055a84620004b0565b62000491565b90508083825260208201905060208402830185811115620005865762000585620004df565b5b835b81811015620005b357806200059e888262000532565b84526020840193505060208101905062000588565b5050509392505050565b600082601f830112620005d557620005d462000416565b5b8151620005e784826020860162000549565b91505092915050565b6000602082840312156200060957620006086200040c565b5b600082015167ffffffffffffffff8111156200062a576200062962000411565b5b6200063884828501620005bd565b91505092915050565b600082825260208201905092915050565b7f5468657265206d7573742062652061746c65617374206f6e652062656e65666960008201527f63696172792e0000000000000000000000000000000000000000000000000000602082015250565b6000620006b060268362000641565b9150620006bd8262000652565b604082019050919050565b60006020820190508181036000830152620006e381620006a1565b9050919050565b7f54686572652063616e206265206d6178696d756d2031322062656e656669636960008201527f61726965732e0000000000000000000000000000000000000000000000000000602082015250565b60006200074860268362000641565b91506200075582620006ea565b604082019050919050565b600060208201905081810360008301526200077b8162000739565b9050919050565b7f4e487b7100000000000000000000000000000000000000000000000000000000600052603260045260246000fd5b7f42656e656669636961727920616464726573732063616e6e6f74206265207a6560008201527f726f2e0000000000000000000000000000000000000000000000000000000000602082015250565b60006200080f60238362000641565b91506200081c82620007b1565b604082019050919050565b60006020820190508181036000830152620008428162000800565b9050919050565b7f53616d65206163636f756e742063616e6e6f742062652061646465642074776960008201527f63652e0000000000000000000000000000000000000000000000000000000000602082015250565b6000620008a760238362000641565b9150620008b48262000849565b604082019050919050565b60006020820190508181036000830152620008da8162000898565b9050919050565b7f4e487b7100000000000000000000000000000000000000000000000000000000600052601160045260246000fd5b6000819050919050565b6000620009278262000910565b91507fffffffffffffffffffffffffffffffffffffffffffffffffffffffffffffffff82036200095c576200095b620008e1565b5b600182019050919050565b60805160a05160c051610ef76200099760003960006101cc015260006104f70152600061051f0152610ef76000f3fe608060405234801561001057600080fd5b50600436106100935760003560e01c80638cd54f4d116100665780638cd54f4d1461010e578063961325211461013e5780639d19b2261461015c578063be9a65551461018c578063fc0c546a146101aa57610093565b80630fb5a6b4146100985780631bfce853146100b657806379203dc4146100e657806386d1a69f14610104575b600080fd5b6100a06101c8565b6040516100ad919061088b565b60405180910390f35b6100d060048036038101906100cb91906108d7565b6101f0565b6040516100dd919061088b565b60405180910390f35b6100ee610202565b6040516100fb919061088b565b60405180910390f35b61010c61020c565b005b610128600480360381019061012391906108d7565b61036b565b604051610135919061088b565b60405180910390f35b61014661044f565b604051610153919061088b565b60405180910390f35b61017660048036038101906101719190610962565b61049d565b60405161018391906109aa565b60405180910390f35b6101946104f3565b6040516101a1919061088b565b60405180910390f35b6101b261051b565b6040516101bf91906109d4565b60405180910390f35b60007f0000000000000000000000000000000000000000000000000000000000000000905090565b60006101fb8261036b565b9050919050565b6000600154905090565b600061022d60058054905061021f61044f565b61054390919063ffffffff16565b610236426101f0565b6102409190610a1e565b905060005b60058054905081101561036757816002600061025f61051b565b73ffffffffffffffffffffffffffffffffffffffff1673ffffffffffffffffffffffffffffffffffffffff16815260200190815260200160002060008282546102a89190610a52565b925050819055506102b761051b565b73ffffffffffffffffffffffffffffffffffffffff167fc0e523490dd523c33b1878c9eb14ff46991e3f5b2cd33710918618f2a39cba1b836040516102fc919061088b565b60405180910390a261035461030f61051b565b6005838154811061032357610322610a86565b5b9060005260206000200160009054906101000a900473ffffffffffffffffffffffffffffffffffffffff1684610559565b808061035f90610ab5565b915050610245565b5050565b60006103756104f3565b821015610385576000905061044a565b61038d6101c8565b6103956104f3565b61039f9190610a52565b8211156103cc576103c56005805490506103b7610202565b61054390919063ffffffff16565b905061044a565b6104476005805490506103fb603c6103e26104f3565b866103ed9190610a1e565b61054390919063ffffffff16565b61042f603c61042161040b6101c8565b610413610202565b61054390919063ffffffff16565b6105df90919063ffffffff16565b6104399190610afd565b61054390919063ffffffff16565b90505b919050565b60006002600061045d61051b565b73ffffffffffffffffffffffffffffffffffffffff1673ffffffffffffffffffffffffffffffffffffffff16815260200190815260200160002054905090565b6000600360008373ffffffffffffffffffffffffffffffffffffffff1673ffffffffffffffffffffffffffffffffffffffff16815260200190815260200160002060009054906101000a900460ff169050919050565b60007f0000000000000000000000000000000000000000000000000000000000000000905090565b60007f0000000000000000000000000000000000000000000000000000000000000000905090565b600081836105519190610b6e565b905092915050565b6105da8363a9059cbb60e01b8484604051602401610578929190610b9f565b604051602081830303815290604052907bffffffffffffffffffffffffffffffffffffffffffffffffffffffff19166020820180517bffffffffffffffffffffffffffffffffffffffffffffffffffffffff83818316178352505050506105f5565b505050565b600081836105ed9190610afd565b905092915050565b6000610657826040518060400160405280602081526020017f5361666545524332303a206c6f772d6c6576656c2063616c6c206661696c65648152508573ffffffffffffffffffffffffffffffffffffffff166106bc9092919063ffffffff16565b90506000815111156106b757808060200190518101906106779190610bf4565b6106b6576040517f08c379a00000000000000000000000000000000000000000000000000000000081526004016106ad90610ca4565b60405180910390fd5b5b505050565b60606106cb84846000856106d4565b90509392505050565b606082471015610719576040517f08c379a000000000000000000000000000000000000000000000000000000000815260040161071090610d36565b60405180910390fd5b610722856107e8565b610761576040517f08c379a000000000000000000000000000000000000000000000000000000000815260040161075890610da2565b60405180910390fd5b6000808673ffffffffffffffffffffffffffffffffffffffff16858760405161078a9190610e33565b60006040518083038185875af1925050503d80600081146107c7576040519150601f19603f3d011682016040523d82523d6000602084013e6107cc565b606091505b50915091506107dc82828661080b565b92505050949350505050565b6000808273ffffffffffffffffffffffffffffffffffffffff163b119050919050565b6060831561081b5782905061086b565b60008351111561082e5782518084602001fd5b816040517f08c379a00000000000000000000000000000000000000000000000000000000081526004016108629190610e9f565b60405180910390fd5b9392505050565b6000819050919050565b61088581610872565b82525050565b60006020820190506108a0600083018461087c565b92915050565b600080fd5b6108b481610872565b81146108bf57600080fd5b50565b6000813590506108d1816108ab565b92915050565b6000602082840312156108ed576108ec6108a6565b5b60006108fb848285016108c2565b91505092915050565b600073ffffffffffffffffffffffffffffffffffffffff82169050919050565b600061092f82610904565b9050919050565b61093f81610924565b811461094a57600080fd5b50565b60008135905061095c81610936565b92915050565b600060208284031215610978576109776108a6565b5b60006109868482850161094d565b91505092915050565b60008115159050919050565b6109a48161098f565b82525050565b60006020820190506109bf600083018461099b565b92915050565b6109ce81610924565b82525050565b60006020820190506109e960008301846109c5565b92915050565b7f4e487b7100000000000000000000000000000000000000000000000000000000600052601160045260246000fd5b6000610a2982610872565b9150610a3483610872565b9250828203905081811115610a4c57610a4b6109ef565b5b92915050565b6000610a5d82610872565b9150610a6883610872565b9250828201905080821115610a8057610a7f6109ef565b5b92915050565b7f4e487b7100000000000000000000000000000000000000000000000000000000600052603260045260246000fd5b6000610ac082610872565b91507fffffffffffffffffffffffffffffffffffffffffffffffffffffffffffffffff8203610af257610af16109ef565b5b600182019050919050565b6000610b0882610872565b9150610b1383610872565b9250828202610b2181610872565b91508282048414831517610b3857610b376109ef565b5b5092915050565b7f4e487b7100000000000000000000000000000000000000000000000000000000600052601260045260246000fd5b6000610b7982610872565b9150610b8483610872565b925082610b9457610b93610b3f565b5b828204905092915050565b6000604082019050610bb460008301856109c5565b610bc1602083018461087c565b9392505050565b610bd18161098f565b8114610bdc57600080fd5b50565b600081519050610bee81610bc8565b92915050565b600060208284031215610c0a57610c096108a6565b5b6000610c1884828501610bdf565b91505092915050565b600082825260208201905092915050565b7f5361666545524332303a204552433230206f7065726174696f6e20646964206e60008201527f6f74207375636365656400000000000000000000000000000000000000000000602082015250565b6000610c8e602a83610c21565b9150610c9982610c32565b604082019050919050565b60006020820190508181036000830152610cbd81610c81565b9050919050565b7f416464726573733a20696e73756666696369656e742062616c616e636520666f60008201527f722063616c6c0000000000000000000000000000000000000000000000000000602082015250565b6000610d20602683610c21565b9150610d2b82610cc4565b604082019050919050565b60006020820190508181036000830152610d4f81610d13565b9050919050565b7f416464726573733a2063616c6c20746f206e6f6e2d636f6e7472616374000000600082015250565b6000610d8c601d83610c21565b9150610d9782610d56565b602082019050919050565b60006020820190508181036000830152610dbb81610d7f565b9050919050565b600081519050919050565b600081905092915050565b60005b83811015610df6578082015181840152602081019050610ddb565b60008484015250505050565b6000610e0d82610dc2565b610e178185610dcd565b9350610e27818560208601610dd8565b80840191505092915050565b6000610e3f8284610e02565b915081905092915050565b600081519050919050565b6000601f19601f8301169050919050565b6000610e7182610e4a565b610e7b8185610c21565b9350610e8b818560208601610dd8565b610e9481610e55565b840191505092915050565b60006020820190508181036000830152610eb98184610e66565b90509291505056fea264697066735822122050edd2c5f80c1ef60a7b8fca6ced4037e2d3e3fc7af9f36201cd3df3cdabaa9764736f6c6343000811003360806040523480156200001157600080fd5b506040518060400160405280600881526020017f58595a546f6b656e0000000000000000000000000000000000000000000000008152506040518060400160405280600381526020017f58595a000000000000000000000000000000000000000000000000000000000081525081600390816200008f9190620004c3565b508060049081620000a19190620004c3565b505050620000c1336a52b7d2dcc80cd2e4000000620000c760201b60201c565b620006c5565b600073ffffffffffffffffffffffffffffffffffffffff168273ffffffffffffffffffffffffffffffffffffffff160362000139576040517f08c379a000000000000000000000000000000000000000000000000000000000815260040162000130906200060b565b60405180910390fd5b6200014d600083836200023f60201b60201c565b80600260008282546200016191906200065c565b92505081905550806000808473ffffffffffffffffffffffffffffffffffffffff1673ffffffffffffffffffffffffffffffffffffffff1681526020019081526020016000206000828254620001b891906200065c565b925050819055508173ffffffffffffffffffffffffffffffffffffffff16600073ffffffffffffffffffffffffffffffffffffffff167fddf252ad1be2c89b69c2b068fc378daa952ba7f163c4a11628f55a4df523b3ef836040516200021f9190620006a8565b60405180910390a36200023b600083836200024460201b60201c565b5050565b505050565b505050565b600081519050919050565b7f4e487b7100000000000000000000000000000000000000000000000000000000600052604160045260246000fd5b7f4e487b7100000000000000000000000000000000000000000000000000000000600052602260045260246000fd5b60006002820490506001821680620002cb57607f821691505b602082108103620002e157620002e062000283565b5b50919050565b60008190508160005260206000209050919050565b60006020601f8301049050919050565b600082821b905092915050565b6000600883026200034b7fffffffffffffffffffffffffffffffffffffffffffffffffffffffffffffffff826200030c565b6200035786836200030c565b95508019841693508086168417925050509392505050565b6000819050919050565b6000819050919050565b6000620003a46200039e62000398846200036f565b62000379565b6200036f565b9050919050565b6000819050919050565b620003c08362000383565b620003d8620003cf82620003ab565b84845462000319565b825550505050565b600090565b620003ef620003e0565b620003fc818484620003b5565b505050565b5b81811015620004245762000418600082620003e5565b60018101905062000402565b5050565b601f82111562000473576200043d81620002e7565b6200044884620002fc565b8101602085101562000458578190505b620004706200046785620002fc565b83018262000401565b50505b505050565b600082821c905092915050565b6000620004986000198460080262000478565b1980831691505092915050565b6000620004b3838362000485565b9150826002028217905092915050565b620004ce8262000249565b67ffffffffffffffff811115620004ea57620004e962000254565b5b620004f68254620002b2565b6200050382828562000428565b600060209050601f8311600181146200053b576000841562000526578287015190505b620005328582620004a5565b865550620005a2565b601f1984166200054b86620002e7565b60005b8281101562000575578489015182556001820191506020850194506020810190506200054e565b8683101562000595578489015162000591601f89168262000485565b8355505b6001600288020188555050505b505050505050565b600082825260208201905092915050565b7f45524332303a206d696e7420746f20746865207a65726f206164647265737300600082015250565b6000620005f3601f83620005aa565b91506200060082620005bb565b602082019050919050565b600060208201905081810360008301526200062681620005e4565b9050919050565b7f4e487b7100000000000000000000000000000000000000000000000000000000600052601160045260246000fd5b600062000669826200036f565b915062000676836200036f565b92508282019050808211156200069157620006906200062d565b5b92915050565b620006a2816200036f565b82525050565b6000602082019050620006bf600083018462000697565b92915050565b61123880620006d56000396000f3fe608060405234801561001057600080fd5b50600436106100a95760003560e01c80633950935111610071578063395093511461016857806370a082311461019857806395d89b41146101c8578063a457c2d7146101e6578063a9059cbb14610216578063dd62ed3e14610246576100a9565b806306fdde03146100ae578063095ea7b3146100cc57806318160ddd146100fc57806323b872dd1461011a578063313ce5671461014a575b600080fd5b6100b6610276565b6040516100c39190610b15565b60405180910390f35b6100e660048036038101906100e19190610bd0565b610308565b6040516100f39190610c2b565b60405180910390f35b61010461032b565b6040516101119190610c55565b60405180910390f35b610134600480360381019061012f9190610c70565b610335565b6040516101419190610c2b565b60405180910390f35b610152610364565b60405161015f9190610cdf565b60405180910390f35b610182600480360381019061017d9190610bd0565b61036d565b60405161018f9190610c2b565b60405180910390f35b6101b260048036038101906101ad9190610cfa565b6103a4565b6040516101bf9190610c55565b60405180910390f35b6101d06103ec565b6040516101dd9190610b15565b60405180910390f35b61020060048036038101906101fb9190610bd0565b61047e565b60405161020d9190610c2b565b60405180910390f35b610230600480360381019061022b9190610bd0565b6104f5565b60405161023d9190610c2b565b60405180910390f35b610260600480360381019061025b9190610d27565b610518565b60405161026d9190610c55565b60405180910390f35b60606003805461028590610d96565b80601f01602080910402602001604051908101604052809291908181526020018280546102b190610d96565b80156102fe5780601f106102d3576101008083540402835291602001916102fe565b820191906000526020600020905b8154815290600101906020018083116102e157829003601f168201915b5050505050905090565b60008061031361059f565b90506103208185856105a7565b600191505092915050565b6000600254905090565b60008061034061059f565b905061034d858285610770565b6103588585856107fc565b60019150509392505050565b60006012905090565b60008061037861059f565b905061039981858561038a8589610518565b6103949190610df6565b6105a7565b600191505092915050565b60008060008373ffffffffffffffffffffffffffffffffffffffff1673ffffffffffffffffffffffffffffffffffffffff168152602001908152602001600020549050919050565b6060600480546103fb90610d96565b80601f016020809104026020016040519081016040528092919081815260200182805461042790610d96565b80156104745780601f1061044957610100808354040283529160200191610474565b820191906000526020600020905b81548152906001019060200180831161045757829003601f168201915b5050505050905090565b60008061048961059f565b905060006104978286610518565b9050838110156104dc576040517f08c379a00000000000000000000000000000000000000000000000000000000081526004016104d390610e9c565b60405180910390fd5b6104e982868684036105a7565b60019250505092915050565b60008061050061059f565b905061050d8185856107fc565b600191505092915050565b6000600160008473ffffffffffffffffffffffffffffffffffffffff1673ffffffffffffffffffffffffffffffffffffffff16815260200190815260200160002060008373ffffffffffffffffffffffffffffffffffffffff1673ffffffffffffffffffffffffffffffffffffffff16815260200190815260200160002054905092915050565b600033905090565b600073ffffffffffffffffffffffffffffffffffffffff168373ffffffffffffffffffffffffffffffffffffffff1603610616576040517f08c379a000000000000000000000000000000000000000000000000000000000815260040161060d90610f2e565b60405180910390fd5b600073ffffffffffffffffffffffffffffffffffffffff168273ffffffffffffffffffffffffffffffffffffffff1603610685576040517f08c379a000000000000000000000000000000000000000000000000000000000815260040161067c90610fc0565b60405180910390fd5b80600160008573ffffffffffffffffffffffffffffffffffffffff1673ffffffffffffffffffffffffffffffffffffffff16815260200190815260200160002060008473ffffffffffffffffffffffffffffffffffffffff1673ffffffffffffffffffffffffffffffffffffffff168152602001908152602001600020819055508173ffffffffffffffffffffffffffffffffffffffff168373ffffffffffffffffffffffffffffffffffffffff167f8c5be1e5ebec7d5bd14f71427d1e84f3dd0314c0f7b2291e5b200ac8c7c3b925836040516107639190610c55565b60405180910390a3505050565b600061077c8484610518565b90507fffffffffffffffffffffffffffffffffffffffffffffffffffffffffffffffff81146107f657818110156107e8576040517f08c379a00000000000000000000000000000000000000000000000000000000081526004016107df9061102c565b60405180910390fd5b6107f584848484036105a7565b5b50505050565b600073ffffffffffffffffffffffffffffffffffffffff168373ffffffffffffffffffffffffffffffffffffffff160361086b576040517f08c379a0000000000000000000000000000000000000000000000000000000008152600401610862906110be565b60405180910390fd5b600073ffffffffffffffffffffffffffffffffffffffff168273ffffffffffffffffffffffffffffffffffffffff16036108da576040517f08c379a00000000000000000000000000000000000000000000000000000000081526004016108d190611150565b60405180910390fd5b6108e5838383610a7b565b60008060008573ffffffffffffffffffffffffffffffffffffffff1673ffffffffffffffffffffffffffffffffffffffff1681526020019081526020016000205490508181101561096b576040517f08c379a0000000000000000000000000000000000000000000000000000000008152600401610962906111e2565b60405180910390fd5b8181036000808673ffffffffffffffffffffffffffffffffffffffff1673ffffffffffffffffffffffffffffffffffffffff16815260200190815260200160002081905550816000808573ffffffffffffffffffffffffffffffffffffffff1673ffffffffffffffffffffffffffffffffffffffff16815260200190815260200160002060008282546109fe9190610df6565b925050819055508273ffffffffffffffffffffffffffffffffffffffff168473ffffffffffffffffffffffffffffffffffffffff167fddf252ad1be2c89b69c2b068fc378daa952ba7f163c4a11628f55a4df523b3ef84604051610a629190610c55565b60405180910390a3610a75848484610a80565b50505050565b505050565b505050565b600081519050919050565b600082825260208201905092915050565b60005b83811015610abf578082015181840152602081019050610aa4565b60008484015250505050565b6000601f19601f8301169050919050565b6000610ae782610a85565b610af18185610a90565b9350610b01818560208601610aa1565b610b0a81610acb565b840191505092915050565b60006020820190508181036000830152610b2f8184610adc565b905092915050565b600080fd5b600073ffffffffffffffffffffffffffffffffffffffff82169050919050565b6000610b6782610b3c565b9050919050565b610b7781610b5c565b8114610b8257600080fd5b50565b600081359050610b9481610b6e565b92915050565b6000819050919050565b610bad81610b9a565b8114610bb857600080fd5b50565b600081359050610bca81610ba4565b92915050565b60008060408385031215610be757610be6610b37565b5b6000610bf585828601610b85565b9250506020610c0685828601610bbb565b9150509250929050565b60008115159050919050565b610c2581610c10565b82525050565b6000602082019050610c406000830184610c1c565b92915050565b610c4f81610b9a565b82525050565b6000602082019050610c6a6000830184610c46565b92915050565b600080600060608486031215610c8957610c88610b37565b5b6000610c9786828701610b85565b9350506020610ca886828701610b85565b9250506040610cb986828701610bbb565b9150509250925092565b600060ff82169050919050565b610cd981610cc3565b82525050565b6000602082019050610cf46000830184610cd0565b92915050565b600060208284031215610d1057610d0f610b37565b5b6000610d1e84828501610b85565b91505092915050565b60008060408385031215610d3e57610d3d610b37565b5b6000610d4c85828601610b85565b9250506020610d5d85828601610b85565b9150509250929050565b7f4e487b7100000000000000000000000000000000000000000000000000000000600052602260045260246000fd5b60006002820490506001821680610dae57607f821691505b602082108103610dc157610dc0610d67565b5b50919050565b7f4e487b7100000000000000000000000000000000000000000000000000000000600052601160045260246000fd5b6000610e0182610b9a565b9150610e0c83610b9a565b9250828201905080821115610e2457610e23610dc7565b5b92915050565b7f45524332303a2064656372656173656420616c6c6f77616e63652062656c6f7760008201527f207a65726f000000000000000000000000000000000000000000000000000000602082015250565b6000610e86602583610a90565b9150610e9182610e2a565b604082019050919050565b60006020820190508181036000830152610eb581610e79565b9050919050565b7f45524332303a20617070726f76652066726f6d20746865207a65726f2061646460008201527f7265737300000000000000000000000000000000000000000000000000000000602082015250565b6000610f18602483610a90565b9150610f2382610ebc565b604082019050919050565b60006020820190508181036000830152610f4781610f0b565b9050919050565b7f45524332303a20617070726f766520746f20746865207a65726f20616464726560008201527f7373000000000000000000000000000000000000000000000000000000000000602082015250565b6000610faa602283610a90565b9150610fb582610f4e565b604082019050919050565b60006020820190508181036000830152610fd981610f9d565b9050919050565b7f45524332303a20696e73756666696369656e7420616c6c6f77616e6365000000600082015250565b6000611016601d83610a90565b915061102182610fe0565b602082019050919050565b6000602082019050818103600083015261104581611009565b9050919050565b7f45524332303a207472616e736665722066726f6d20746865207a65726f20616460008201527f6472657373000000000000000000000000000000000000000000000000000000602082015250565b60006110a8602583610a90565b91506110b38261104c565b604082019050919050565b600060208201905081810360008301526110d78161109b565b9050919050565b7f45524332303a207472616e7366657220746f20746865207a65726f206164647260008201527f6573730000000000000000000000000000000000000000000000000000000000602082015250565b600061113a602383610a90565b9150611145826110de565b604082019050919050565b600060208201905081810360008301526111698161112d565b9050919050565b7f45524332303a207472616e7366657220616d6f756e742065786365656473206260008201527f616c616e63650000000000000000000000000000000000000000000000000000602082015250565b60006111cc602683610a90565b91506111d782611170565b604082019050919050565b600060208201905081810360008301526111fb816111bf565b905091905056fea2646970667358221220496c21516f8c4f5f06aca6ee0cf7809bbeda409c28bc78b0c3326bff90ecd04064736f6c63430008110033a2646970667358221220a52dcb0586b3921a69acb934484e4628bb9ceff1cc392ffe6a86ac247233ba3864736f6c63430008110033",
  "linkReferences": {},
  "deployedLinkReferences": {}
}